{
  "_format": "hh-sol-artifact-1",
  "contractName": "VendingMachineV3",
  "sourceName": "contracts/VendingMachineV3.sol",
  "abi": [
    {
      "anonymous": false,
      "inputs": [
        {
          "indexed": false,
          "internalType": "uint8",
          "name": "version",
          "type": "uint8"
        }
      ],
      "name": "Initialized",
      "type": "event"
    },
    {
      "inputs": [],
      "name": "changeXTo7",
      "outputs": [],
      "stateMutability": "nonpayable",
      "type": "function"
    },
    {
      "inputs": [],
      "name": "getX",
      "outputs": [
        {
          "internalType": "uint256",
          "name": "",
          "type": "uint256"
        }
      ],
      "stateMutability": "view",
      "type": "function"
    },
    {
      "inputs": [
        {
          "internalType": "uint256",
          "name": "_numSodas",
          "type": "uint256"
        }
      ],
      "name": "initialize",
      "outputs": [],
      "stateMutability": "nonpayable",
      "type": "function"
    },
    {
      "inputs": [],
      "name": "numSodas",
      "outputs": [
        {
          "internalType": "uint256",
          "name": "",
          "type": "uint256"
        }
      ],
      "stateMutability": "view",
      "type": "function"
    },
    {
      "inputs": [],
      "name": "owner",
      "outputs": [
        {
          "internalType": "address",
          "name": "",
          "type": "address"
        }
      ],
      "stateMutability": "view",
      "type": "function"
    },
    {
      "inputs": [],
      "name": "purchaseSoda",
      "outputs": [],
      "stateMutability": "payable",
      "type": "function"
    },
    {
      "inputs": [
        {
          "internalType": "address",
          "name": "_newOwner",
          "type": "address"
        }
      ],
      "name": "setNewOwner",
      "outputs": [],
      "stateMutability": "nonpayable",
      "type": "function"
    },
    {
      "inputs": [],
      "name": "withdrawProfits",
      "outputs": [],
      "stateMutability": "nonpayable",
      "type": "function"
    },
    {
      "inputs": [],
      "name": "x",
      "outputs": [
        {
          "internalType": "uint256",
          "name": "",
          "type": "uint256"
        }
      ],
      "stateMutability": "view",
      "type": "function"
    }
  ],
  "bytecode": "0x608060405234801561001057600080fd5b50610bcd806100206000396000f3fe6080604052600436106100865760003560e01c806363b183291161005957806363b183291461010f5780637454ab6d1461013a5780638da5cb5b14610144578063f5a1f5b41461016f578063fe4b84df1461019857610086565b80630c55699c1461008b57806337eb521b146100b657806339913e09146100cd5780635197c7aa146100e4575b600080fd5b34801561009757600080fd5b506100a06101c1565b6040516100ad9190610699565b60405180910390f35b3480156100c257600080fd5b506100cb6101c7565b005b3480156100d957600080fd5b506100e26101d1565b005b3480156100f057600080fd5b506100f9610375565b6040516101069190610699565b60405180910390f35b34801561011b57600080fd5b5061012461037f565b6040516101319190610699565b60405180910390f35b610142610385565b005b34801561015057600080fd5b506101596103e4565b60405161016691906106f5565b60405180910390f35b34801561017b57600080fd5b5061019660048036038101906101919190610741565b61040a565b005b3480156101a457600080fd5b506101bf60048036038101906101ba919061079a565b6104de565b005b60035481565b6007600381905550565b600260009054906101000a900473ffffffffffffffffffffffffffffffffffffffff1673ffffffffffffffffffffffffffffffffffffffff163373ffffffffffffffffffffffffffffffffffffffff1614610261576040517f08c379a00000000000000000000000000000000000000000000000000000000081526004016102589061084a565b60405180910390fd5b600047116102a4576040517f08c379a000000000000000000000000000000000000000000000000000000000815260040161029b906108dc565b60405180910390fd5b6000600260009054906101000a900473ffffffffffffffffffffffffffffffffffffffff1673ffffffffffffffffffffffffffffffffffffffff16476040516102ec9061092d565b60006040518083038185875af1925050503d8060008114610329576040519150601f19603f3d011682016040523d82523d6000602084013e61032e565b606091505b5050905080610372576040517f08c379a00000000000000000000000000000000000000000000000000000000081526004016103699061098e565b60405180910390fd5b50565b6000600354905090565b60015481565b6103e83410156103ca576040517f08c379a00000000000000000000000000000000000000000000000000000000081526004016103c190610a20565b60405180910390fd5b600160008154809291906103dd90610a6f565b9190505550565b600260009054906101000a900473ffffffffffffffffffffffffffffffffffffffff1681565b600260009054906101000a900473ffffffffffffffffffffffffffffffffffffffff1673ffffffffffffffffffffffffffffffffffffffff163373ffffffffffffffffffffffffffffffffffffffff161461049a576040517f08c379a00000000000000000000000000000000000000000000000000000000081526004016104919061084a565b60405180910390fd5b80600260006101000a81548173ffffffffffffffffffffffffffffffffffffffff021916908373ffffffffffffffffffffffffffffffffffffffff16021790555050565b60008060019054906101000a900460ff1615905080801561050f5750600160008054906101000a900460ff1660ff16105b8061053c575061051e3061065d565b15801561053b5750600160008054906101000a900460ff1660ff16145b5b61057b576040517f08c379a000000000000000000000000000000000000000000000000000000000815260040161057290610b0a565b60405180910390fd5b60016000806101000a81548160ff021916908360ff16021790555080156105b8576001600060016101000a81548160ff0219169083151502179055505b8160018190555033600260006101000a81548173ffffffffffffffffffffffffffffffffffffffff021916908373ffffffffffffffffffffffffffffffffffffffff16021790555080156106595760008060016101000a81548160ff0219169083151502179055507f7f26b83ff96e1f2b6a682f133852f6798a09c465da95921460cefb384740249860016040516106509190610b7c565b60405180910390a15b5050565b6000808273ffffffffffffffffffffffffffffffffffffffff163b119050919050565b6000819050919050565b61069381610680565b82525050565b60006020820190506106ae600083018461068a565b92915050565b600073ffffffffffffffffffffffffffffffffffffffff82169050919050565b60006106df826106b4565b9050919050565b6106ef816106d4565b82525050565b600060208201905061070a60008301846106e6565b92915050565b600080fd5b61071e816106d4565b811461072957600080fd5b50565b60008135905061073b81610715565b92915050565b60006020828403121561075757610756610710565b5b60006107658482850161072c565b91505092915050565b61077781610680565b811461078257600080fd5b50565b6000813590506107948161076e565b92915050565b6000602082840312156107b0576107af610710565b5b60006107be84828501610785565b91505092915050565b600082825260208201905092915050565b7f4f6e6c79206f776e65722063616e2063616c6c20746869732066756e6374696f60008201527f6e2e000000000000000000000000000000000000000000000000000000000000602082015250565b60006108346022836107c7565b915061083f826107d8565b604082019050919050565b6000602082019050818103600083015261086381610827565b9050919050565b7f50726f66697473206d7573742062652067726561746572207468616e2030206960008201527f6e206f7264657220746f20776974686472617721000000000000000000000000602082015250565b60006108c66034836107c7565b91506108d18261086a565b604082019050919050565b600060208201905081810360008301526108f5816108b9565b9050919050565b600081905092915050565b50565b60006109176000836108fc565b915061092282610907565b600082019050919050565b60006109388261090a565b9150819050919050565b7f4661696c656420746f2073656e64206574686572000000000000000000000000600082015250565b60006109786014836107c7565b915061098382610942565b602082019050919050565b600060208201905081810360008301526109a78161096b565b9050919050565b7f596f75206d7573742070617920313030302077656920666f72206120736f646160008201527f2100000000000000000000000000000000000000000000000000000000000000602082015250565b6000610a0a6021836107c7565b9150610a15826109ae565b604082019050919050565b60006020820190508181036000830152610a39816109fd565b9050919050565b7f4e487b7100000000000000000000000000000000000000000000000000000000600052601160045260246000fd5b6000610a7a82610680565b915060008203610a8d57610a8c610a40565b5b600182039050919050565b7f496e697469616c697a61626c653a20636f6e747261637420697320616c72656160008201527f647920696e697469616c697a6564000000000000000000000000000000000000602082015250565b6000610af4602e836107c7565b9150610aff82610a98565b604082019050919050565b60006020820190508181036000830152610b2381610ae7565b9050919050565b6000819050919050565b600060ff82169050919050565b6000819050919050565b6000610b66610b61610b5c84610b2a565b610b41565b610b34565b9050919050565b610b7681610b4b565b82525050565b6000602082019050610b916000830184610b6d565b9291505056fea26469706673582212203c8e95bd524b810b63c2502357505429467477ef3a6f43c20af9081e71622a7364736f6c63430008110033",
  "linkReferences": {},
  "deployedLinkReferences": {}
}